:100003002B2D2D2D2D2D2D2D2D2D2D2D2D2D2D2D1F
:100013002D2D2D2D2D2D2D2D2D2D2D2D2D2D2D2D0D
:100023002D2D2D2D2B0A7C20202020202020202048
:1000330020202020202020202020202020202020BD
:10004300202020202020202020207C0A7C2020200B
:1000530020204147454E444120444520434F4E54C0
:1000630041544F53202020202020202020202020D6
:100073007C0A7C20202020202020202020202020DB
:10008300202020202020202020202020202020206D
:100093002020202020207C0A007C204D656E7520C6
:1000A3002D204469676974652061206F7063616FF7
:1000B30020646573656A616461202020207C0A00E6
:1000C3007C205B4C5D202D204C697374612064653A
:1000D30020436F6E7461746F73202020204F4B2078
:1000E300202020207C0A007C205B4E5D202D2050A8
:1000F3006573717569736120706F72206E6F6D65C2
:10010300202020204F4B20202020207C0A007C2010
:100113005B495D202D205065737175697361207093
:100123006F722069646164652020202020202020D4
:1001330020207C0A007C205B525D202D20506573BB
:10014300717569736120706F722052656C616369A8
:100153006F6E616D656E746F207C200A007C205B7E
:10016300415D202D20416463696F6E617220636F6E
:100173006E7461746F20202020204F4B202020209C
:10018300207C0A007C205B445D202D2044656C6547
:1001930074617220636F6E7461746F20202020205D
:1001A30020202020202020207C0A007C205B455D2D
:1001B300202D2045444954415220636F6E7461746D
:1001C3006F20202020202020202020202020207C81
:1001D300200A002B2D2D2D2D2D2D2D2D2D2D2D2DAB
:1001E3002D2D2D2D2D2D2D2D2D2D2D2D2D2D2D2D3C
:1001F3002D2D2D2D2D2D2D2B0A0A004C6973746185
:1002030020646520436F6E7461746F732073656C33
:100213006563696F6E6164612E0A0025732025731F
:10022300202575200A000A205465636C65206573D8
:100233007061E76F207061726120766F6C74617218
:1002430020616F204D656E75000A50657371756985
:10025300736120706F72206E6F6D652073656C65BE
:1002630063696F6E6164612E0A004469676974652E
:10027300206F206E6F6D653A200025732025732053
:100283002562640A00506573717569736120706F2C
:10029300722069646164652073656C6563696F6E60
:1002A3006164612E0A005065737175697361207012
:1002B3006F722072656C6163696F6E616D656E74D8
:1002C3006F2073656C6563696F6E6164612E0A00EC
:1002D30041646963696F6E6172206E6F766F20632C
:1002E3006F6E7461746F2E0A00496E7369726120B8
:1002F3006F206E6F6D653A2000202573000A5465E8
:100303006C65666F6E6520646F20636F6E746174D5
:100313006F3A20000A44617461206465206E617342
:1003230063696D656E746F20646F20636F6E7461B3
:10033300746F202844442F4D4D2F41414141293AA8
:100343002020002025642F25642F2564000A4461A2
:100353007461206465204E617363696D656E746FAB
:100363003A202564202F202564202F202564000AAD
:10037300446967697465206F2072656C6163696F96
:100383006E616D656E746F20646F20636F6E746150
:10039300746F3A2000202575000A44656C6574610A
:1003A3007220636F6E7461746F0A004F20636F6E07
:1003B3007461746F20257320736572E1206578631F
:1003C3006C75ED646F2E200A2054656D2063657291
:1003D30074657A61203F205B535D696D2058205B13
:1003E3004E5DE36F203A00696D2E20200A202D3EDA
:1003F30020436F6E7461746F2044656C657461642F
:100403006F0A00E36F200A202D3E204F7065726152
:10041300E7E36F2063616E63656C61646100496E3D
:10042300666F726D65206F206461646F20717565FE
:1004330020646573656A61206564697461720A008A
:100443005B415D202D204E6F6D6520646F20636FCF
:100453006E7461746F0A005B425D202D2054656CDD
:1004630065666F6E650A005B435D202D2052656CE7
:100473006163696F6E616D656E746F0A005B445DE5
:10048300202D2044617461206465204E617363698B
:100493006D656E746F0A00496E666F726D65206FCD
:1004A300206E6F766F206E6F6D6520646F20636FB3
:1004B3006E7461746F3A0A00496E666F726D6520DF
:1004C3006F206E6F766F2074656C65666F6E652046
:1004D300646F20636F6E7461746F3A0A004E6F76B7
:1004E3006F2072656C6163696F6E616D656E746FA9
:1004F3003A0A0025642F25642F2564004F70E7E333
:100503006F20696E76E16C6964612E0A000A4F7090
:10051300E7E36F20696E76E16C6964612E205072A7
:1005230065737320537061636520652054656E7431
:1005330065206E6F76616D656E74652E0A000A50D4
:1005430072657373696F6E652065737061E76F2001
:100553007061726120636F6E74696E7561720A00F7
:100563000A446967697465206F206E6F6D6520703A
:1005730061726120706573717569736172206F7345
:1005830020636F6E7461746F73206578697374652B
:100593006E7465730A002564BA202D202573202507
:1005A300732025750A000A496E666F726D65206FA8
:1005B300206EFA6D65726F20BA20636F7272657375
:1005C300706F6E64656E746520616F20636F6E7407
:1005D30061746F2E0A002564004C696E646F6D614F
:1005E30072204D697200000000000000000000004E
:1005F300000000000000000000373139373438357F
:1006030039363134000000000C000607D7000043E0
:100613006C65612053616E746F730000000000000D
:100623000000000000000000000000000000003790
:100633003139383734313233343500000000140097
:100643000607D300014672616E6B6C696E205361BD
:100653007661676574000000000000000000000080
:100663000000000000373239393931323136323047
:100673000000000012000607D800024D6172696194
:100683006E6120426172726F73000000000000000F
:100693000000000000000000000000373439373448
:1006A300383539363133000000000C000607D2001C
:1006B300034A6F7365204564756172646F000000BF
:1006C3000000000000000000000000000000000027
:1006D30000373139373438353936313300000000CB
:1006E3001E000607C5000454617469616E61204FE2
:1006F3006C6976656972610000000000000000000B
:1007030000000000000000373139373438353936FE
:100713003130000000000C000607CF000543616D77
:10072300696C61206465204A65737573000000007D
:100733000000000000000000000000000037313915
:1007430037343835393631350000000001000607EB
:10075300A500064C6F7569736520506F6C69616EF7
:100763006100000000000000000000000000000025
:100773000000003739393837353134393532000024
:1007830000001E000607AA0007486569746F7220FF
:1007930044696173000000000000000000000000D5
:1007A30000000000000000000037313938343132D6
:1007B30035323437000000000C000607B70008523A
:1007C30065696E616C646F20476F6573000000009C
:1007D30000000000000000000000000000000037DF
:1007E30031393734383539363138000000001B00D1
:0507F3000807BA00092F
:1007F800758920759852758DF3438780D28E7E69EE
:100808007F787D007B017A007900120FB178007C37
:10081800007D017BFF7A0579DC7E027F1C120E8445
:100828007BFF7A0079031211737BFF7A00799C129F
:1008380011737BFF7A0079C31211737BFF7A0079F9
:10084800EA1211737BFF7A0179111211737BFF7A17
:100858000179381211737BFF7A0179601211737B69
:10086800FF7A0179871211737BFF7A0179AE121131
:10087800737BFF7A0179D61211731219AA8F46E594
:1008880046646C6009E546644C60030209317BFFED
:100898007A0179FE121173E4F544F545900000756C
:1008A800F036E545120EBCE54475F036A42583F50F
:1008B80083E0604CAE44AF457C007D36120EAA74CE
:1008C800002FF974003E754A01F54B894C74202FAE
:1008D800F974003E754D01F54E894F90003475F05E
:1008E80036E545120EBCE54475F036A42583F5833C
:1008F800E0F550A3E0F5517BFF7A02791E121173DF
:100908000545E54570020544C394F4E544648094C4
:100918008140897BFF7A0279291211731219AAEF93
:100928006420700302082880F3E546646E6009E5D8
:1009380046644E60030209F37BFF7A02794C121178
:10094800737BFF7A02796D1211737B007A00792428
:100958007D207C0012184FE4F544F545AE44AF45C0
:100968007C007D36120EAA74002FF974003EFA7BC3
:1009780001C0031B8B4A754B00754C24D003121819
:10098800EEE94A4B604CAE44AF457C007D36120E12
:10099800AA74002FF974003E754A01F54B894C740E
:1009A800202FF974003E754D01F54E894F900034A3
:1009B80075F036E545120EBCE54475F036A425837E
:1009C800F583E0F550A3E0F5517BFF7A02797D12BB
:1009D80011730545E54570020544C394F4E5446484
:1009E8008094815003020964020C44E546646960FE
:1009F80005E546B449087BFF7A0279888011E54607
:100A080064726005E546B4520C7BFF7A0279A9123C
:100A18001173020D98E54664616009E5466441601A
:100A280003020B9E7BFF7A0279D3121173E4F5441B
:100A3800F545C3E54594F4E5446480948140030298
:100A4800082890000075F036E545120EBCE544759F
:100A5800F036A42583F583E06003020B937BFF7ACD
:100A68000279EC121173AE44AF457C007D36120E4C
:100A7800AA74002FF974003E754A01F54B894C7B26
:100A8800FF7A0279FC1214EF7BFF7A0379001211C6
:100A980073AE44AF457C007D36120EAA74202FF940
:100AA80074003E754A01F54B894C7BFF7A0279FC4C
:100AB8001214EF7BFF7A037917121173AE44AF4516
:100AC8007C007D36120EAA742E2FF974003E754AEA
:100AD80001F54B894C74302FF974003E754D01F5C2
:100AE8004E894F74322FF974003E755001F55189C3
:100AF800527BFF7A0379461214EF1219AA7BFF7A08
:100B080003795090002E75F036E545120EBCE54489
:100B180075F036A42583F583E0F54AA3E0F54B90FC
:100B2800003075F036E545120EBCE54475F036A484
:100B38002583F583E0F54CA3E0F54D90003275F080
:100B480036E545120EBCE54475F036A42583F583D9
:100B5800E0F54EA3E0F54F1211737BFF7A0379722B
:100B68001211737BFF7A03799890003475F036E59B
:100B780045120EBCE54475F036A42583F583E0F5EF
:100B88004AA3E0F54B1214EF1219BB0545E5457071
:100B9800020544020A3AE54664646009E54664448D
:100BA8006003020C477BFF7A03799C1211731217BA
:100BB80084AE22AF237C007D36120EAA74002FF972
:100BC80074003E754A01F54B894C7BFF7A0379AE78
:100BD8001211731219AA8F46E54664536006E5465A
:100BE8006473704F90000075F036E523120EBCE573
:100BF8002275F036A42583F583E4F090002075F083
:100C080036E523120EBCE52275F036A42583F5835C
:100C1800E4F090003475F036E523120EBCE5227539
:100C2800F036A42583F583E4F0A3F07BFF7A0379FB
:100C3800EA80067BFF7A047906121173020D98E5A3
:100C48004664656009E54664456003020D9E121717
:100C5800847BFF7A0479211211737BFF7A0479432C
:100C68001211737BFF7A04795A1211737BFF7A048D
:100C7800796A1211737BFF7A047980121173121941
:100C8800AA8F46E54624BE604C147003020D161464
:100C98007003020D4324E3601314603914606F1469
:100CA8007003020D4324236003020D8F7BFF7A0437
:100CB800799A1211737B007A0079247D207C0012C6
:100CC800184FAE22AF237C007D36120EAA74002F77
:100CD800F9740080277BFF7A0479BB1211737B00BB
:100CE8007A0079247D0E7C0012184FAE22AF237C47
:100CF800007D36120EAA74202FF974003EA801FC5C
:100D08007D017B007A007924120F94020D987BFFF5
:100D18007A0479E01211737BFF7A03799890003492
:100D280075F036E523120EBCE52275F036A425834E
:100D3800F583E0F54AA3E0F54B80447BFF7A03791D
:100D480017121173AE44AF457C007D36120EAA749B
:100D58002E2FF974003E754A01F54B894C74302FDB
:100D6800F974003E754D01F54E894F74322FF974B0
:100D7800003E755001F55189527BFF7A0479F612CD
:100D880014EF1219AA80097BFF7A0479FF121173F4
:100D98001219BB0208287BFF7A0579101211731209
:0C0DA80019AAEF6420700302082880F3F1
:1019BB007BFF7A0579411211731219AABF20FA2203
:101784007BFF7A0579631211737B007A0079247DDB
:10179400207C0012184FE4F544F545AE44AF457C77
:1017A400007D36120EAA74002FF974003EFA7B01F4
:1017B400C0031B8B4A754B00754C24D0031218EEE2
:1017C400E94A4B605285444A85454BAE44AF457C5B
:1017D400007D36120EAA74002FF974003E754C0178
:1017E400F54D894E74202FF974003E754F01F55064
:1017F400895190003475F036E545120EBCE5447508
:10180400F036A42583F583E0F552A3E0F5537BFF7E
:101814007A0579991211730545E54570020544C3AB
:1018240094F4E54464809481500302179F7BFF7A0B
:101834000579A9121173754A00754B00754C227B0A
:0B184400FF7A0579D91214EF0219AAEF
:030000000219CB17
:0C19CB00787FE4F6D8FD7581600207F813
:100DB400E709F608DFFA8046E709F208DFFA803E21
:100DC40088828C83E709F0A3DFFA8032E309F6080E
:100DD400DFFA8078E309F208DFFA807088828C8376
:100DE400E309F0A3DFFA806489828A83E0A3F6082A
:100DF400DFFA805889828A83E0A3F208DFFA804C04
:100E040080D280FA80C680D4806980F280338010DA
:100E140080A680EA809A80A880DA80E280CA803343
:100E240089828A83ECFAE493A3C8C582C8CCC583BB
:100E3400CCF0A3C8C582C8CCC583CCDFE9DEE7808B
:100E44000D89828A83E493A3F608DFF9ECFAA9F00A
:100E5400EDFB2289828A83ECFAE0A3C8C582C8CC60
:100E6400C583CCF0A3C8C582C8CCC583CCDFEADE79
:100E7400E880DB89828A83E493A3F208DFF980CCDB
:100E840088F0EF60010E4E60C388F0ED2402B404D4
:100E94000050B9F582EB2402B4040050AF2323457B
:060EA4008223900E04738E
:100EAA00EF8DF0A4A8F0CF8CF0A428CE8DF0A42E5C
:020EBA00FE2216
:0C0EBC00A42582F582E5F03583F5832241
:10111100E556244AF8E60556227847300702784A10
:10112100E475F0011210A7020FDD2000EB7F2ED233
:10113100008018EF540F2490D43440D4FF30040BB6
:10114100EF24BFB41A0050032461FFE55760021574
:1011510057055AE55A7002055930070D7847E4756D
:10116100F0011210A7EF0210230219707403D207C5
:101171008003E4C207F5568B478A488949E4F5574D
:10118100F559F55AE55760077F2012114C80F57526
:1011910058FFC201C200C202C203C205C206C20890
:1011A10012111AFF700D3007057F0012115DAF5A41
:1011B100AE5922B4255FC2D5C20412111AFF24D040
:1011C100B40A00501A75F00A785730D50508B6FFF1
:1011D1000106C6A426F620D5047002D20380D924C4
:1011E100CFB41A00EF5004C2E5D20402135DD2015C
:1011F10080C6D20080C0D20280BCD2D580BAD205CE
:1012010080B47F2012114C2002077401B5570040B1
:10121100F1121111FF12114C021185D208D2068070
:1012210095121111FB121111FA121111F94A4B7099
:1012310006792E7A147BFF20022EE557602A7E0064
:101241008E82758300120FF660060EEE655870F0FF
:10125100C2D5EBC0E0EAC0E0E9C0E0EE1213A4D0D1
:10126100E0F9D0E0FAD0E0FB120FDDFF60AAEBC09D
:10127100E0EAC0E0E9C0E012114CD0E02401F9D06D
:10128100E03400FAD0E0FBE5580460DCD558D980A1
:10129100877BFF7A1379A0D202809C791080027932
:1012A10008C206C2088008D2D5790A8004790AC228
:1012B100D5E558047002F558E4FAFDFEFF1211114C
:1012C100FC7B08200113121111FD7B1030000A1262
:1012D1001111FE121111FF7B20EC3382D592D550F2
:1012E10013C3E43000069FFFE49EFEE42001039D4A
:1012F100FDE49CFCE4CBF8C201EC700CCFCECDCC6C
:10130100E824F8F870F38017C3EF33FFEE33FEEDF6
:1013110033FDEC33FCEB33FB994002FB0FD8E9EBD7
:10132100300105F8D0E0C448B201C0E00AEC4D4EEE
:101331004F78207B0070C2EAB5580040BCC0E01273
:1013410013A6D0F0D0E0200104C4C0E0C4B201C0B3
:10135100F0121135D0F0D5F0EB0211851210C71241
:101361002253129C5811F34C11EF4212A04F12A8B4
:0F1371004412A84912084312AE55129246129226
:1013800045129247144E5011F72D11FB2E121E2BB1
:1013900011FF23121C2014372A11B748000012161F
:1013A0003F3F3F00790AA2D5200314300509B91048
:1013B000020404B9080104A2D52006025001042049
:1013C00002689202B557005034C0E07F2030031904
:1013D0007F30A20272067205500F1213FDC202C2C4
:1013E00006C205C2087F30800F300503E9C0E01255
:1013F000114C300503D0E0F9D0E0B557CC300517DB
:101400007F30B9100C12114C7F583004077F788060
:1014100003B9080312114C3002057F2D02114C7FD5
:10142000202008F87F2B2006F322920280CF286E1E
:10143000756C6C2900D2011211113001F8C20178CB
:101440005730D50108F60211B72D504349581211F3
:10145000112403B405004001E49014499312113D96
:0D146000743A12113DD20375570402129C1C
:1019AA0010090B1219D7BF0D027F0A021970AF086E
:0119BA00220A
:10146D00E55C30030104F82328244AF8227847303C
:10147D000302784AE475F0011210A7020FDD60EC4B
:10148D00C5607002155F14C560200304FF0219E1E9
:10149D00784774FFF5F00210B7FF021997E55D600C
:1014AD0006D55D037F002220030F1219AAEF6008F5
:1014BD000560E5607002055F22784712109E120FDD
:1014CD00DDFF60E97847E475F0011210A780DE12A8
:1014DD0014B4EFC0E01214A6D0E040F380A0D20304
:1014ED008002C2038B478A488949E4F55EF55CF5B5
:1014FD005FF560755D00C202C200C201C204121424
:10150D007AFF7005AF5E7E0022B4253012147AFF8B
:10151D0024D0B40A00500C75F00AC55DA4255DF504
:10152D005D80E924CFB41A00EF5002C2E5021750D6
:10153D00D20180D8D20080D4D20480D0EF1214A66C
:10154D0050081214DCEF600E80A9EFC0E01214B445
:10155D00D0E06F609EEF607412148B80A71214B4EC
:10156D00EF6069E55D7007055D80031214B4EF60EF
:10157D001420040E12146DE475F0011210A7EF1271
:10158D001023D55DE6200404055C055E80BA1214B7
:10159D00AAEFC0E01214A6D0E0500412148BE4FFA1
:1015AD0020040E12146DE475F0011210A7EF121045
:1015BD0023EF70DA200404055C055E808BE55D6029
:1015CD0002055D1214DC1214AAEF70C6300304E498
:1015DD0012148BE55E60030215117EFF7FFF222042
:1015ED00041174FFFCFDFEFF12146D12109E1210FB
:1015FD0084055C021500D0E080D27900800A791054
:10160D00800679088002790AD205E55D6002055DE4
:10161D00E9C0E01214DCEF60DD1214B4BF2D04D26A
:10162D00028003BF2B091214DCEF60CA1214AAD07A
:10163D00E0B40A028033B40802802EBF3027700256
:10164D007408C205C0E01214AAD0E0BF780280036E
:10165D00BF5816055DD55D028007D55D04D20580A6
:10166D000B741080197002740ABF000AEFF8E4FCC5
:10167D00FDFEFF021703C0E0EF12148BD0E0F9E47A
:10168D00FCFDFEFFE9C0E0ECC0E0EDC0E0EEC0E027
:10169D00EFC0E01214AAEFF8D0E0FFD0E0FED0E0EA
:1016AD00FDD0E0FCD0F0E8604DB461004007B47BA4
:1016BD00005002C2E524D0503DFA24F6500724F91B
:1016CD005034240AFAEAB5F000502BCFA9F0A42F1C
:1016DD00FF92D5E9C5F0CEA4A2D53EFE92D5E9C5BF
:1016ED00F0CDA4A2D53DFD92D5E9C5F0CCA4A2D5EF
:0B16FD003CFCC205808EE8C0E0200429
:101708002A200508055E30020312107612146D12A5
:10171800109E055C20000B20010DEE8FF012105773
:1017280080091210848004EF121023D0E012148B69
:1017380002150020041012146D12109E055CE55F5E
:101748008560F012105780E81210C715CA53160B9F
:101758005815414C153D42151948160F4F1613449C
:10176800156A4316074916135515EC4615EC451529
:0C177800EC4715452A173B4E00001549B0
:10184F008B478A4889498C4A8D4BE4F54CF54DE519
:10185F004B24FFFFE54A34FFFEC3E54D9FEE648046
:10186F00F8E54C64809850661219AAAB47AA48A9AC
:10187F0049854D82854C83EF121035640A604FAB5A
:10188F0047AA48A949854D82854C83120FF6B408A3
:10189F001AE54D454C6008E54D154D7002154C7F0E
:1018AF00201219707F0812197080A4AB47AA48A99B
:1018BF0049854D82854C83120FF6FF64116090EFBE
:1018CF006413608B054DE54D7085054C8081AB47EA
:0F18DF00AA48A949854D82854C83E41210352211
:100EC800E709F60870FA8046E709F20870FA803EEA
:100ED80088828C83E709F0A370FA807EE309F6081C
:100EE80070FA8076E309F20870FA806E88828C8343
:100EF800E309F0A370FA806289828A83E0A3F60886
:100F080070FA805689828A83E0A3F20870FA804AD0
:100F180080D280FA80C680D4806580F280318010CB
:100F280080A680EA809A80A880DA80E280CA803130
:100F380089828A83ECFAE493A3C8C582C8CCC583A6
:100F4800CCF0A3C8C582C8CCC583CC70E9800D8914
:100F5800828A83E493A3F60870F9ECFAA9F0EDFB12
:100F68002289828A83ECFAE0A3C8C582C8CCC583EB
:100F7800CCF0A3C8C582C8CCC583CC70EA80DD8913
:100F8800828A83E493A3F20870F980CE88F0ED2476
:100F980002B4040050C4F582EB2402B4040050BA31
:090FA8002323458223900F1873E6
:1018EE008B478A488949AB4AAA4BA94C120FDD6037
:1018FE0063AB47AA48A949120FDD605F854A4D8543
:10190E004B4E854C4F8B508A518952AB4DAA4EA9E6
:10191E004F120FDDFF6023AB50AA51A952120FDDFB
:10192E006F701704254FF54FE4354EF54E740125B3
:10193E0052F552E43551F55180D1AB4DAA4EA94F17
:10194E00120FDD7002800D74012549F549E435480A
:10195E00F548809DAB47AA48A949227B007A0079B9
:02196E00002255
:100FB100EF4E6012EF60010EEDBB010B89828A8357
:100FC100F0A3DFFCDEFA2289F05007F709DFFCA964
:0C0FD100F022BBFEFCF309DFFCA9F022BB
:100FDD00BB010689828A83E0225002E722BBFE0212
:090FED00E32289828A83E4932245
:100FF600BB010CE58229F582E5833AF583E02250B0
:1010060006E92582F8E622BBFE06E92582F8E222F9
:0D101600E58229F582E5833AF583E4932213
:10102300BB010689828A83F0225002F722BBFE01AC
:02103300F322A6
:10103500F8BB010DE58229F582E5833AF583E8F0F1
:10104500225006E92582C8F622BBFE05E92582C89D
:02105500F22285
:10105700BB010A89828A83F0E5F0A3F0225006F7E4
:0F10670009A7F01922BBFE06F3E5F009F31922E1
:0E107600C3E49FFFE49EFEE49DFDE49CFC228B
:10108400BB010789828A830210F95005E9F802102E
:0A109400EDBBFE05E9F8021105228C
:09109E00E6FB08E6FA08E6F92277
:1010A700FAE6FB0808E6F925F0F618E6CA3AF6224A
:1010B700FAE6FB0808E625F0F9F618E63AFAF6220A
:1010C700D083D082F8E4937012740193700DA3A3B8
:1010D70093F8740193F5828883E4737402936860CC
:0610E700EFA3A3A380DFCC
:10197000EFB40A07740D12197B740A309811A899F4
:10198000B8130CC2983098FDA899C298B811F630D7
:0719900099FDC299F59922AF
:0A19D7003098FDAF99C2987E0022FF
:0519E1008F08D209226D
:10199700EFC394094005EF940E4003BF2003D380A3
:0319A70001C32257
:0C10ED00ECF608EDF608EEF608EFF6222F
:0C10F900ECF0A3EDF0A3EEF0A3EFF0226A
:0C110500ECF208EDF208EEF208EFF22226
:00000001FF
