:100003000C2B2D2D2D2D2D2D2D2D2D2D2D2D2D2D40
:100013002D2D2D2D2D2D2D2D2D2D2D2D2D2D2D2D0D
:100023002D2D2D2D2D2B0A7C20202020202020203B
:1000330020202020202020202020202020202020BD
:1000430020202020202020202020207C0A7C20200B
:100053002020204147454E444120444520434F4EF4
:100063005441544F532020202020202020202020A2
:10007300207C0A7C202020202020202020202020DB
:10008300202020202020202020202020202020206D
:10009300202020202020207C0A007C204D656E75C6
:1000A300202D204469676974652061206F70E7E340
:1000B3006F20646573656A616461202020207C0A77
:1000C300007C205B4C5D202D204C6973746120649F
:1000D3006520436F6E7461746F73206F6B202020F3
:1000E300202020202020207C0A007C205B4E5D20E5
:1000F3002D20506573717569736120706F72206E66
:100103006F6D6520206F6B2121202020202020206F
:1001130020207C0A007C205B495D202D20506573E4
:10012300717569736120706F722069646164652001
:100133002020202020202020207C0A007C205B52CD
:100143005D202D20506573717569736120706F7226
:100153002052656C6163696F6E616D656E746F20AB
:100163007C200A007C205B415D202D204164636973
:100173006F6E617220636F6E7461746F2020202034
:100183006F6B212120202020202020207C0A007C4E
:10019300205B445D202D2044656C6574617220638F
:1001A3006F6E7461746F2020202020202020202077
:1001B3002020207C0A007C205B455D202D20526599
:1001C3006E6F6D65617220636F6E7461746F202052
:1001D30020206F6B212120202020202020207C2024
:1001E3000A002B2D2D2D2D2D2D2D2D2D2D2D2D2D8E
:1001F3002D2D2D2D2D2D2D2D2D2D2D2D2D2D2D2D2C
:100203002D2D2D2D2D2D2B0A0A002F66004C6973E1
:10021300746120646520436F6E7461746F7320731F
:10022300656C6563696F6E6164612E0A00257320D6
:100233002573202562640A000A205072657373696E
:100243006F6E652065737061E76F20706172612066
:10025300636F6E74696E7561720050657371756951
:10026300736120706F72206E6F6D652073656C65AE
:1002730063696F6E6164612E0A004469676974651E
:10028300206F206E6F6D650A005065737175697319
:100293006120706F722069646164652073656C65A9
:1002A30063696F6E6164612E0A00506573717569CD
:1002B300736120706F722072656C6163696F6E6128
:1002C3006D656E746F2073656C6563696F6E6164D1
:1002D300612E0A0041646963696F6E617220636F06
:1002E3006E7461746F2073656C6563696F6E6164AE
:1002F3006F2E0A00496E73697261206F206E6F6DF5
:10030300650A00257300446967697465206F20746A
:10031300656C65666F6E6520646F20636F6E7461D4
:10032300746F3A20004469676974652061206461D1
:100333007461206465206E617363696D656E746FAB
:1003430020646F20636F6E7461746F202864696129
:10035300206DEA7320616E6F293A0A20002564201C
:1003630025642025640044617461206465204E6126
:100373007363696D656E746F3A202564202F2025A1
:1003830064202F202564000A446967697465206F1F
:100393002072656C6163696F6E616D656E746F2049
:1003A300646F20636F6E7461746F3A20002025635D
:1003B300000A205072657373696F6E6520657370F0
:1003C30061E76F207061726120766F6C74617200F7
:1003D30044656C6574617220636F6E7461746F2021
:1003E30073656C6563696F6E61646F2E0A000A44FE
:1003F3006967697465206F206E6F6D6520646F2077
:10040300636F6E7461746F207175652064657365C5
:100413006A612072656E6F6D6561720A002564BA48
:10042300202573202573202562640A000A496E661D
:100433006F726D65206F206E756D65726F20636FCF
:1004430072726573706F6E64656E746520616F2080
:10045300636F6E7461746F2E200A00256400446913
:1004630067697465206170656E6173206EFA6D65EE
:10047300726F73210A004EFA6D65726F20666F7298
:100483006120646520696E74657276616C6F2C20DF
:10049300646967697465206E6F76616D656E7465F6
:1004A30000496E666F726D65206F206E6F766F20E8
:1004B3006E6F6D6520646F20636F6E7461746F3A45
:1004C3000A000A202D2D3E205072657373696F6EEA
:1004D300652065737061E76F207061726120636FDF
:1004E3006E74696E756172203C2D2D000A4F70E7A2
:1004F300E36F20696E76E16C6964612E2054656E4A
:100503007465206E6F76616D656E74652E0A004C9E
:10051300696E646F6D6172204D69720000000000A6
:100523000000000000000000000000000000003791
:1005330031393734383539363134000000000C0096
:100543000607D700436C65612053616E746F7300B7
:100553000000000000000000000000000000000098
:100563000000000037313938373431323334350045
:1005730000000014000607D3014672616E6B6C69BC
:100583006E2053617661676574000000000000000F
:1005930000000000000000000037323939393132E1
:1005A300313632300000000012000607D8024D61D8
:1005B3007269616E6120426172726F7300000000A4
:1005C30000000000000000000000000000003734BD
:1005D300393734383539363133000000000C000622
:1005E30007D2034A6F73E9204564756172646F0033
:1005F30000000000000000000000000000000000F8
:10060300000000373139373438353936313300009B
:1006130000001E000607C50454617469616E612001
:100623004F6C69766569726100000000000000008C
:100633000000000000000000373139373438353905
:10064300363130000000000C000607CF0543616D12
:10065300696C61206465204A65737573000000004E
:1006630000000000000000000000000000373139E6
:1006730037343835393631350000000001000607BC
:10068300A5064C6F7569736520506F6C69616E6167
:100693000000000000000000000000000000000057
:1006A30000003739393837353134393532000000F5
:1006B300001E000607AA07486569746F7220446923
:1006C3006173000000000000000000000000000053
:1006D3000000000000000037313938343132353240
:1006E3003437000000000C000607B7085265696E36
:1006F300616C646F20476F657300000000000000A9
:10070300000000000000000000000000373139370E
:1007130034383539363138000000001B000807BA79
:0107230009CC
:10072400758920759852758DF3438780D28E7E67C4
:100734007F847D007B017A007900120E6278007C50
:10074400007D017BFF7A0579127E027F12120D353E
:100754007BFF7A0079031210247BFF7A00799D12C3
:1007640010247BFF7A0079C41210247BFF7A00796D
:10077400ED1210247BFF7A0179181210247BFF7A82
:1007840001793F1210247BFF7A0179671210247BD0
:10079400FF7A0179921210247BFF7A0179B9121041
:1007A400247BFF7A0179E51210241217908F22E539
:1007B40022646C6009E522644C60030208627BFFDA
:1007C4007A02790D1210247BFF7A02791012102418
:1007D400E4F523F52490000075F035E524120D6D41
:1007E400E52375F035A42583F583E06048AE23AF97
:1007F400247C007D35120D5B74002FF974003E7566
:100804004A01F54B894C74202FF974003E754D0153
:10081400F54E894F90003475F035E524120D6DE5E1
:100824002375F035A42583F583E0F5507BFF7A0228
:1008340079301210240524E52470020523C394F4AE
:10084400E52364809481408D7BFF7A02793B12100A
:1008540024121790EF6420700302075480F3E522FA
:10086400646E6009E522644E60030209337BFF7AFB
:1008740002795D1210247B007A0079277D207C00A8
:100884001216357BFF7A02797D121024E4F523F5E4
:1008940024AE23AF247C007D35120D5B74002FF948
:1008A40074003EFA7B01C0031B8B4A754B00754CE8
:1008B40027D0031216D4E94A4B6048AE23AF247CF8
:1008C400007D35120D5B74002FF974003E754A01EA
:1008D400F54B894C74202FF974003E754D01F54E8B
:1008E400894F90003475F035E524120D6DE52375BC
:1008F400F035A42583F583E0F5507BFF7A02793047
:100904001210240524E52470020523C394F4E5237E
:100914006480948150030208957BFF7A02793B122C
:100924001024121790EF6420700302075480F3E53B
:100934002264696005E522B449097BFF7A02798C57
:10094400020AF9E52264726005E522B452097BFFCC
:100954007A0279AD020AF9E52264616009E522644C
:10096400416003020AE87BFF7A0279D7121024E47B
:10097400F523F524C3E52494F4E5236480948140AD
:100984000302075490000075F035E524120D6DE55F
:100994002375F035A42583F583E06003020ADD7B2B
:1009A400FF7A0279F7121024AE23AF247C007D3540
:1009B400120D5B74002FF974003E754A01F54B89E2
:1009C4004C7BFF7A0379061213A07BFF7A03790923
:1009D400121024AE23AF247C007D35120D5B7420ED
:1009E4002FF974003E754A01F54B894C7BFF7A035D
:1009F40079061213A07BFF7A037928121024AE2300
:100A0400AF247C007D35120D5B742E2FF974003EEB
:100A1400754A01F54B894C74302FF974003E754DBD
:100A240001F54E894F74322FF974003E755001F56B
:100A34005189527BFF7A0379601213A07BFF7A03FA
:100A4400796990002E75F035E524120D6DE5237556
:100A5400F035A42583F583E0F54AA3E0F54B900037
:100A64003075F035E524120D6DE52375F035A425B8
:100A740083F583E0F54CA3E0F54D90003275F03535
:100A8400E524120D6DE52375F035A42583F583E087
:100A9400F54EA3E0F54F1210247BFF7A03798A12F6
:100AA40010247BFF7A0379B090003475F035E52487
:100AB400120D6DE52375F035A42583F583E0F54A21
:100AC4001213A07BFF7A0379B4121024121790EF4B
:100AD4006420700302075480F30524E524700205A2
:100AE40023020978E52264646005E522B4440C7BA2
:100AF400FF7A0379D3121024020754E52264656057
:100B040009E52264456003020C4F7BFF7A0379F107
:100B14001210247B007A0079277D207C0012163580
:100B2400E4F523F524AE23AF247C007D35120D5B60
:100B340074002FF974003EFA7B01C0031B8B4A75C5
:100B44004B00754C27D0031216D4E94A4B604E85EE
:100B5400234A85244BAE23AF247C007D35120D5BE4
:100B640074002FF974003E754C01F54D894E7420C4
:100B74002FF974003E754F01F5508951900034757A
:100B8400F035E524120D6DE52375F035A42583F5C4
:100B940083E0F5527BFF7A0479201210240524E5C2
:100BA4002470020523C394F4E523648094815003E4
:100BB400020B297BFF7A04792F803C754A00754B20
:100BC40000754C257BFF7A04795E1213A0EF640153
:100BD4004E60087BFF7A047961801CC3E52564803C
:100BE4009480400DD3E52694F4E5256480948140F7
:100BF4000B7BFF7A04797912102480BF1217907B43
:100C0400FF7A0479A41210247B007A0079277D20CE
:100C14007C00121635AE25AF267C007D35120D5BA7
:100C240074002FF974003EA801FC7D017B007A005A
:100C34007927120E457BFF7A0479C5121024121706
:100C440090EF6420700302075480F37BFF7A0479E9
:100C5400EF121024121790EF6420700302075480DF
:010C6400F39C
:030000000217A143
:0C17A100787FE4F6D8FD75816002072413
:100C6500E709F608DFFA8046E709F208DFFA803E71
:100C750088828C83E709F0A3DFFA8032E309F6085E
:100C8500DFFA8078E309F208DFFA807088828C83C6
:100C9500E309F0A3DFFA806489828A83E0A3F6087A
:100CA500DFFA805889828A83E0A3F208DFFA804C54
:100CB50080D280FA80C680D4806980F2803380102B
:100CC50080A680EA809A80A880DA80E280CA803394
:100CD50089828A83ECFAE493A3C8C582C8CCC5830C
:100CE500CCF0A3C8C582C8CCC583CCDFE9DEE780DC
:100CF5000D89828A83E493A3F608DFF9ECFAA9F05B
:100D0500EDFB2289828A83ECFAE0A3C8C582C8CCB0
:100D1500C583CCF0A3C8C582C8CCC583CCDFEADEC9
:100D2500E880DB89828A83E493A3F208DFF980CC2B
:100D350088F0EF60010E4E60C388F0ED2402B40424
:100D45000050B9F582EB2402B4040050AF232345CB
:060D55008223900CB5732F
:100D5B00EF8DF0A4A8F0CF8CF0A428CE8DF0A42EAC
:020D6B00FE2266
:0C0D6D00A42582F582E5F03583F5832291
:100FC200E556244AF8E60556227847300702784A61
:100FD200E475F001120F58020E8E2000EB7F2ED224
:100FE200008018EF540F2490D43440D4FF30040B07
:100FF200EF24BFB41A0050032461FFE557600215C5
:1010020057055AE55A7002055930070D7847E475BD
:10101200F001120F58EF020ED40217567403D207D2
:101022008003E4C207F5568B478A488949E4F5579D
:10103200F559F55AE55760077F20120FFD80F575C7
:1010420058FFC201C200C202C203C205C206C208E0
:10105200120FCBFF700D3007057F0012100EAF5A32
:10106200AE5922B4255FC2D5C204120FCBFF24D0E1
:10107200B40A00501A75F00A785730D50508B6FF41
:101082000106C6A426F620D5047002D20380D92414
:10109200CFB41A00EF5004C2E5D20402120ED201FC
:1010A20080C6D20080C0D20280BCD2D580BAD2051E
:1010B20080B47F20120FFD2002077401B557004053
:1010C200F1120FC2FF120FFD021036D208D20680B3
:1010D20095120FC2FB120FC2FA120FC2F94A4B70DD
:1010E2000679DF7A127BFF20022EE557602A7E0006
:1010F2008E82758300120EA760060EEE655870F0A0
:10110200C2D5EBC0E0EAC0E0E9C0E0EE121255D071
:10111200E0F9D0E0FAD0E0FB120E8EFF60AAEBC03D
:10112200E0EAC0E0E9C0E0120FFDD0E02401F9D00E
:10113200E03400FAD0E0FBE5580460DCD558D980F1
:10114200877BFF7A127951D202809C7910800279D2
:1011520008C206C2088008D2D5790A8004790AC278
:10116200D5E558047002F558E4FAFDFEFF120FC2ED
:10117200FC7B08200113120FC2FD7B1030000A1203
:101182000FC2FE120FC2FF7B20EC3382D592D550E4
:1011920013C3E43000069FFFE49EFEE42001039D9A
:1011A200FDE49CFCE4CBF8C201EC700CCFCECDCCBC
:1011B200E824F8F870F38017C3EF33FFEE33FEED47
:1011C20033FDEC33FCEB33FB994002FB0FD8E9EB28
:1011D200300105F8D0E0C448B201C0E00AEC4D4E3F
:1011E2004F78207B0070C2EAB5580040BCC0E012C4
:1011F2001257D0F0D0E0200104C4C0E0C4B201C054
:10120200F0120FE6D0F0D5F0EB021036120F781084
:10121200D353114D5810A44C10A04211514F1159E3
:0F1222004411594910B943115F55114346114307
:101231004511434712FF5010A82D10AC2E10CF2B93
:1012410010B02310CD2012E82A106848000010C702
:101251003F3F3F00790AA2D5200314300509B91098
:10126100020404B9080104A2D52006025001042099
:1012710002689202B557005034C0E07F2030031954
:101281007F30A20272067205500F1212AEC202C264
:1012910006C205C2087F30800F300503E9C0E012A5
:1012A1000FFD300503D0E0F9D0E0B557CC3005177C
:1012B1007F30B9100C120FFD7F583004077F788002
:1012C10003B90803120FFD3002057F2D020FFD7FC8
:1012D100202008F87F2B2006F322920280CF286E6F
:1012E100756C6C2900D201120FC23001F8C201786D
:1012F1005730D50108F60210682D50434958120F96
:10130100C22403B405004001E49012FA93120FEED7
:0D131100743A120FEED20375570402114D0D
:1017900010090B1217ADBF0D027F0A021756AF08D2
:0117A0002226
:10131E00E55C30030104F82328244AF8227847308C
:10132E000302784AE475F001120F58020E8E60EC3B
:10133E00C5607002155F14C560200304FF0217B765
:10134E00784774FFF5F0020F68FF02177DE55D60C8
:10135E0006D55D037F002220030F121790EF600861
:10136E000560E5607002055F227847120F4F120E7E
:10137E008EFF60E97847E475F001120F5880DE1297
:10138E001365EFC0E0121357D0E040F380A0D203F4
:10139E008002C2038B478A488949E4F55EF55CF505
:1013AE005FF560755D00C202C200C201C204121375
:1013BE002BFF7005AF5E7E0022B4253012132BFF7B
:1013CE0024D0B40A00500C75F00AC55DA4255DF555
:1013DE005D80E924CFB41A00EF5002C2E502160177
:1013EE00D20180D8D20080D4D20480D0EF1213570D
:1013FE00500812138DEF600E80A9EFC0E012136536
:10140E00D0E06F609EEF607412133C80A7121365DC
:10141E00EF6069E55D7007055D8003121365EF608F
:10142E001420040E12131EE475F001120F58EF1261
:10143E000ED4D55DE6200404055C055E80BA121359
:10144E005BEFC0E0121357D0E0500412133CE4FFE0
:10145E0020040E12131EE475F001120F58EF120E37
:10146E00D4EF70DA200404055C055E808BE55D60C8
:10147E0002055D12138D12135BEF70C6300304E488
:10148E0012133CE55E60030213C27EFF7FFF222033
:10149E00041174FFFCFDFEFF12131E120F4F120FEC
:1014AE0035055C0213B1D0E080D27900800A791044
:1014BE00800679088002790AD205E55D6002055D35
:1014CE00E9C0E012138DEF60DD121365BF2D04D25B
:1014DE00028003BF2B0912138DEF60CA12135BD06B
:1014EE00E0B40A028033B40802802EBF30277002A7
:1014FE007408C205C0E012135BD0E0BF780280030F
:10150E00BF5816055DD55D028007D55D04D20580F6
:10151E000B741080197002740ABF000AEFF8E4FC15
:10152E00FDFEFF0215B4C0E0EF12133CD0E0F9E46B
:10153E00FCFDFEFFE9C0E0ECC0E0EDC0E0EEC0E077
:10154E00EFC0E012135BEFF8D0E0FFD0E0FED0E08A
:10155E00FDD0E0FCD0F0E8604DB461004007B47BF4
:10156E00005002C2E524D0503DFA24F6500724F96B
:10157E005034240AFAEAB5F000502BCFA9F0A42F6C
:10158E00FF92D5E9C5F0CEA4A2D53EFE92D5E9C50F
:10159E00F0CDA4A2D53DFD92D5E9C5F0CCA4A2D53F
:0B15AE003CFCC205808EE8C0E0200479
:1015B9002A200508055E300203120F2712131E1296
:1015C9000F4F055C20000B20010DEE8FF0120F0864
:1015D9008009120F358004EF120ED4D0E012133CAB
:1015E9000213B120041012131E120F4F055CE55FA0
:1015F9008560F0120F0880E8120F78147B5314BC31
:101609005813F24C13EE4213CA4814C04F14C44481
:10161900141B4314B84914C455149D46149D45140C
:0C1629009D4713F62A15EC4E000013FA42
:101635008B478A4889498C4A8D4BE4F54CF54DE535
:101645004B24FFFFE54A34FFFEC3E54D9FEE648062
:10165500F8E54C6480985066121790AB47AA48A9E4
:1016650049854D82854C83EF120EE6640A604FABC7
:1016750047AA48A949854D82854C83120EA7B4080F
:101685001AE54D454C6008E54D154D7002154C7F2A
:10169500201217567F0812175680A4AB47AA48A9EF
:1016A50049854D82854C83120EA7FF64116090EF2A
:1016B5006413608B054DE54D7085054C8081AB4706
:0F16C500AA48A949854D82854C83E4120EE6227E
:100D7900E709F60870FA8046E709F20870FA803E3A
:100D890088828C83E709F0A370FA807EE309F6086C
:100D990070FA8076E309F20870FA806E88828C8393
:100DA900E309F0A370FA806289828A83E0A3F608D6
:100DB90070FA805689828A83E0A3F20870FA804A21
:100DC90080D280FA80C680D4806580F2803180101C
:100DD90080A680EA809A80A880DA80E280CA803181
:100DE90089828A83ECFAE493A3C8C582C8CCC583F7
:100DF900CCF0A3C8C582C8CCC583CC70E9800D8965
:100E0900828A83E493A3F60870F9ECFAA9F0EDFB62
:100E19002289828A83ECFAE0A3C8C582C8CCC5833B
:100E2900CCF0A3C8C582C8CCC583CC70EA80DD8963
:100E3900828A83E493A3F20870F980CE88F0ED24C6
:100E490002B4040050C4F582EB2402B4040050BA81
:090E59002323458223900DC97387
:1016D4008B478A488949AB4AAA4BA94C120E8E60A3
:1016E40063AB47AA48A949120E8E605F854A4D85AF
:1016F4004B4E854C4F8B508A518952AB4DAA4EA903
:101704004F120E8EFF6023AB50AA51A952120E8EB7
:101714006F701704254FF54FE4354EF54E740125CF
:1017240052F552E43551F55180D1AB4DAA4EA94F33
:10173400120E8E7002800D74012549F549E4354876
:10174400F548809DAB47AA48A949227B007A0079D5
:02175400002271
:100E6200EF4E6012EF60010EEDBB010B89828A83A7
:100E7200F0A3DFFCDEFA2289F05007F709DFFCA9B4
:0C0E8200F022BBFEFCF309DFFCA9F0220B
:100E8E00BB010689828A83E0225002E722BBFE0262
:090E9E00E32289828A83E4932295
:100EA700BB010CE58229F582E5833AF583E0225000
:100EB70006E92582F8E622BBFE06E92582F8E2224A
:0D0EC700E58229F582E5833AF583E4932264
:100ED400BB010689828A83F0225002F722BBFE01FD
:020EE400F322F7
:100EE600F8BB010DE58229F582E5833AF583E8F042
:100EF600225006E92582C8F622BBFE05E92582C8EE
:020F0600F222D5
:100F0800BB010A89828A83F0E5F0A3F0225006F734
:0F0F180009A7F01922BBFE06F3E5F009F3192231
:0E0F2700C3E49FFFE49EFEE49DFDE49CFC22DB
:100F3500BB010789828A83020FAA5005E9F8020FCF
:0A0F45009EBBFE05E9F8020FB6227C
:090F4F00E6FB08E6FA08E6F922C7
:100F5800FAE6FB0808E6F925F0F618E6CA3AF6229A
:100F6800FAE6FB0808E625F0F9F618E63AFAF6225A
:100F7800D083D082F8E4937012740193700DA3A308
:100F880093F8740193F5828883E47374029368601C
:060F9800EFA3A3A380DF1C
:10175600EFB40A07740D121761740A309811A8992C
:10176600B8130CC2983098FDA899C298B811F630F3
:0717760099FDC299F59922CB
:0A17AD003098FDAF99C2987E00222B
:0517B7008F08D2092299
:10177D00EFC394094005EF940E4003BF2003D380BF
:03178D0001C32273
:0C0F9E00ECF608EDF608EEF608EFF6227F
:0C0FAA00ECF0A3EDF0A3EEF0A3EFF022BA
:0C0FB600ECF208EDF208EEF208EFF22277
:00000001FF
