:100003002B2D2D2D2D2D2D2D2D2D2D2D2D2D2D2D1F
:100013002D2D2D2D2D2D2D2D2D2D2D2D2D2D2D2D0D
:100023002D2D2D2D2B0A7C20202020202020202048
:1000330020202020202020202020202020202020BD
:10004300202020202020202020207C0A7C2020200B
:1000530020204147454E444120444520434F4E54C0
:1000630041544F53202020202020202020202020D6
:100073007C0A7C20202020202020202020202020DB
:10008300202020202020202020202020202020206D
:100093002020202020207C0A007C204D656E7520C6
:1000A3002D204469676974652061206F7063616FF7
:1000B30020646573656A616461202020207C0A00E6
:1000C3007C205B4C5D202D204C697374612064653A
:1000D30020436F6E7461746F73202020204F4B2078
:1000E300202020207C0A007C205B4E5D202D2050A8
:1000F3006573717569736120706F72206E6F6D65C2
:10010300202020204F4B20202020207C0A007C2010
:100113005B495D202D205065737175697361207093
:100123006F722069646164652020202020202020D4
:1001330020207C0A007C205B525D202D20506573BB
:10014300717569736120706F722052656C616369A8
:100153006F6E616D656E746F207C200A007C205B7E
:10016300415D202D20416463696F6E617220636F6E
:100173006E7461746F20202020204F4B202020209C
:10018300207C0A007C205B445D202D2044656C6547
:1001930074617220636F6E7461746F20202020205D
:1001A30020202020202020207C0A007C205B455D2D
:1001B300202D2045444954415220636F6E7461746D
:1001C3006F20202020202020202020202020207C81
:1001D300200A002B2D2D2D2D2D2D2D2D2D2D2D2DAB
:1001E3002D2D2D2D2D2D2D2D2D2D2D2D2D2D2D2D3C
:1001F3002D2D2D2D2D2D2D2B0A0A004C6973746185
:1002030020646520436F6E7461746F732073656C33
:100213006563696F6E6164612E0A0025732025731F
:10022300202575200A000A50657371756973612072
:10023300706F72206E6F6D652073656C6563696F97
:100243006E6164612E0A00446967697465206F20DA
:100253006E6F6D653A200025732025732025626437
:100263000A00506573717569736120706F7220693C
:10027300646164652073656C6563696F6E61646155
:100283002E0A000A446967697465206F2072656CE1
:100293006163696F6E616D656E746F3A2000416DC5
:1002A30069676F004C6973746120646120636174D2
:1002B30065676F72696120416D69676F00416D69A0
:1002C3007A616465004C69737461206461206361C1
:1002D3007465676F72696120416D697A6164650055
:1002E3004E616D6F7261646F004C69737461206459
:1002F300612063617465676F726961204E616D6F20
:100303007261646F0025732025750A004164696377
:10031300696F6E6172206E6F766F20636F6E7461AA
:10032300746F2E0A00496E73697261206F206E6FBD
:100333006D653A2000202573000A54656C65666F6D
:100343006E6520646F20636F6E7461746F3A200072
:100353000A44617461206465206E617363696D652D
:100363006E746F20646F20636F6E7461746F2028E6
:1003730044442F4D4D2F41414141293A2020002033
:1003830025642F25642F2564000A44617461206469
:1003930065204E617363696D656E746F3A202564E1
:1003A300202F202564202F202564000A44696769D3
:1003B3007465206F2072656C6163696F6E616D6532
:1003C3006E746F20646F20636F6E7461746F3A2074
:1003D30000202575000A44656C6574617220636FA3
:1003E3006E7461746F0A004F20636F6E7461746F73
:1003F300202573207365723F206578636C753F64B5
:100403006F2E200A2054656D2063657274657A61CE
:10041300203F205B535D696D2058205B4E5D3F6F2D
:10042300203A00696D2E20200A202D3E20436F6E56
:100433007461746F2044656C657461646F0A003F76
:100443006F200A202D3E204F706572613F3F6F2061
:1004530063616E63656C61646100496E666F726DA2
:1004630065206F206461646F207175652064657316
:10047300656A61206564697461720A005B415D208D
:100483002D204E6F6D6520646F20636F6E746174F1
:100493006F0A005B425D202D2054656C65666F6EAC
:1004A300650A005B435D202D2052656C6163696FB3
:1004B3006E616D656E746F0A005B445D202D204490
:1004C300617461206465204E617363696D656E7448
:1004D3006F0A00496E666F726D65206F206E6F76CE
:1004E3006F206E6F6D6520646F20636F6E7461742F
:1004F3006F3A0A00496E666F726D65206F206E6FEA
:10050300766F2074656C65666F6E6520646F20631B
:100513006F6E7461746F3A0A004E6F766F20726566
:100523006C6163696F6E616D656E746F3A0A004149
:100533007475616C697A61646F20706172613A20CD
:1005430025750025642F25642F2564004F703F3FD8
:100553006F20696E763F6C6964612E0A000A4F70E2
:100563003F3F6F20696E763F6C6964612E20507245
:1005730065737320537061636520652054656E74E1
:1005830065206E6F76616D656E74652E0A000A5084
:1005930072657373696F6E6520657370613F6F2059
:1005A3007061726120636F6E74696E7561720A00A7
:1005B3000A446967697465206F206E6F6D652070EA
:1005C30061726120706573717569736172206F73F5
:1005D30020636F6E7461746F7320657869737465DB
:1005E3006E7465730A0025643F202D202573202532
:1005F300732025750A000A496E666F726D65206F58
:10060300206E3F6D65726F203F20636F727265735A
:10061300706F6E64656E746520616F20636F6E74B6
:1006230061746F2E0A002564004C696E646F6D61FE
:1006330072204D69720000000000000000000000FD
:10064300000000000000000000373139373438352E
:1006530039363134000000000C000607D700004390
:100663006C65612053616E746F73000000000000BD
:100673000000000000000000000000000000003740
:100683003139383734313233343500000000140047
:100693000607D300014672616E6B6C696E2053616D
:1006A3007661676574000000000000000000000030
:1006B30000000000003732393939313231363230F7
:1006C3000000000012000607D800014D6172696145
:1006D3006E6120426172726F7300000000000000BF
:1006E30000000000000000000000003734393734F8
:1006F300383539363133000000000C000607D200CC
:10070300014A6F7365204564756172646F00000070
:1007130000000000000000000000000000000000D6
:10072300003731393734383539363133000000007A
:100733001E000607C5000454617469616E61204F91
:100743006C697665697261000000000000000000BA
:1007530000000000000000373139373438353936AE
:100763003130000000000C000607CF000543616D27
:10077300696C61206465204A65737573000000002D
:1007830000000000000000000000000000373139C5
:10079300373438353936313500000000010006079B
:1007A300A500064C6F7569736520506F6C69616EA7
:1007B30061000000000000000000000000000000D5
:1007C30000000037393938373531343935320000D4
:1007D30000001E000607AA0007486569746F7220AF
:1007E3004469617300000000000000000000000085
:1007F3000000000000000000003731393834313286
:1008030035323437000000000C000607B7000852E9
:1008130065696E616C646F20476F6573000000004B
:10082300000000000000000000000000000000378E
:1008330031393734383539363138000000001B0080
:050843000807BA0009DE
:10084800758920759852758DF3438780D28E7E699D
:100858007F787D007B017A0079001212A578007CF0
:10086800007D017BFF7A06792C7E027F1C120FD354
:100878007BFF7A0079031214677BFF7A00799C1258
:1008880014677BFF7A0079C31214677BFF7A0079BB
:10089800EA1214677BFF7A0179111214677BFF7AD9
:1008A8000179381214677BFF7A0179601214677B2B
:1008B800FF7A0179871214677BFF7A0179AE1214E7
:1008C800677BFF7A0179D6121467121C9E8F5AE54E
:1008D8005A646C6009E55A644C600302096E7BFF38
:1008E8007A0179FE121467E4F558F55990000075FD
:1008F800F036E55912100BE55875F036A42583F546
:1009080083E0604CAE58AF597C007D36120FF97405
:10091800002FF974003E756001F561896274202F1B
:10092800F974003E756301F564896590003475F0CB
:1009380036E55912100BE55875F036A42583F58372
:10094800E0F566A3E0F5677BFF7A02791E1214676B
:100958000559E55970020558C394F4E55864809424
:10096800814089020B44E55A646E6009E55A644E79
:100978006003020A307BFF7A0279291214677BFF31
:100988007A02794A1214677B007A0079247D207CE8
:1009980000121B43E4F558F559AE58AF597C007D59
:1009A80036120FF974002FF974003EFA7B01C00368
:1009B8001B8B60756100756224D003121BE2E94A43
:1009C8004B604CAE58AF597C007D36120FF974005D
:1009D8002FF974003E756001F561896274202FF962
:1009E80074003E756301F564896590003475F036CE
:1009F800E55912100BE55875F036A42583F583E008
:100A0800F566A3E0F5677BFF7A02795A1214670549
:100A180059E55970020558C394F4E55864809481E7
:100A280050030209A1020B44E55A64696005E55ABE
:100A3800B4490C7BFF7A027965121467020EE7E568
:100A48005A64726009E55A64526003020B477BFFDF
:100A58007A0279861214677B007A0079247D207CDB
:100A680000121B4378247C007D007BFF7A0279A169
:100A780012119FEF700DF55B755C017BFF7A0279AF
:100A8800A7801D78247C007D007BFF7A0279C01244
:100A9800119FEF7010F55B755C027BFF7A0279C8D5
:100AA800121467802178247C007D007BFF7A02790C
:100AB800E312119FEF700F7BFF7A0279EC12146733
:100AC800755B00755C03E4F558F55990003475F0D2
:100AD80036E55912100BE55875F036A42583F583D1
:100AE800E0FEA3E0B55C42EEB55B3EAE58AF597C84
:100AF800007D36120FF974002FF974003E756001FD
:100B0800F561896290003475F036E55912100BE5ED
:100B18005875F036A42583F583E0F563A3E0F56402
:100B28007BFF7A0379081214670559E559700205A5
:100B380058C394F4E55864809481408F020EE7E529
:100B48005A64616009E55A64416003020CC87BFF7E
:100B58007A03790F121467E4F558F559C3E55994E7
:100B6800F4E5586480948140030208789000007589
:100B7800F036E55912100BE55875F036A42583F5C3
:100B880083E06003020CBD7BFF7A037928121467A7
:100B9800AE58AF597C007D36120FF974002FF974E6
:100BA800003E756001F56189627BFF7A037938122E
:100BB80017E37BFF7A03793C121467AE58AF597C70
:100BC800007D36120FF974202FF974003E7560010C
:100BD800F56189627BFF7A0379381217E37BFF7A24
:100BE800037953121467AE58AF597C007D36120F43
:100BF800F9742E2FF974003E756001F561896274ED
:100C0800302FF974003E756301F564896574322FDD
:100C1800F974003E756601F56789687BFF7A037988
:100C2800821217E3121C9E7BFF7A03798C90002EA8
:100C380075F036E55912100BE55875F036A4258382
:100C4800F583E0F560A3E0F56190003075F036E5D6
:100C58005912100BE55875F036A42583F583E0F595
:100C680062A3E0F56390003275F036E55912100B77
:100C7800E55875F036A42583F583E0F564A3E0F51F
:100C8800651214677BFF7A0379AE1214677BFF7ACB
:100C98000379D490003475F036E55912100BE558F5
:100CA80075F036A42583F583E0F560A3E0F56112BD
:100CB80017E3121CAF0559E55970020558020B6479
:100CC800E55A64646009E55A64446003020D717B67
:100CD800FF7A0379D8121467121A78AE22AF237CF0
:100CE800007D36120FF974002FF974003E7560010B
:100CF800F56189627BFF7A0379EA121467121C9EF8
:100D08008F5AE55A64536006E55A6473704F900031
:100D18000075F036E52312100BE52275F036A42590
:100D280083F583E4F090002075F036E52312100B6C
:100D3800E52275F036A42583F583E4F09000347538
:100D4800F036E52312100BE52275F036A42583F55D
:100D580083E4F0A3F07BFF7A04792680067BFF7A90
:100D6800047942121467020EE7E55A64656009E5E2
:100D78005A64456003020EED121A787BFF7A0479F3
:100D88005D1214677BFF7A04797F1214677BFF7A00
:100D98000479961214677BFF7A0479A61214677B8C
:100DA800FF7A0479BC121467121C9E8F5AE55A24E4
:100DB800BE604C147003020E40147003020E92249D
:100DC800E3601314603914606F147003020E9224E8
:100DD800236003020EDE7BFF7A0479D61214677B48
:100DE800007A0079247D207C00121B43AE22AF23B9
:100DF8007C007D36120FF974002FF9740080277B70
:100E0800FF7A0479F71214677B007A0079247D0E43
:100E18007C00121B43AE22AF237C007D36120FF9F3
:100E280074202FF974003EA801FC7D017B007A0034
:100E38007924121288020EE77BFF7A05791C1214B6
:100E480067AE22AF237C007D36120FF974342FF978
:100E580074003E756001F56189627BFF7A0379D47D
:100E68001217E3121C9E7BFF7A05793290003475C5
:100E7800F036E52312100BE52275F036A42583F52C
:100E880083E0F560A3E0F56180527BFF7A03795334
:100E9800121467AE58AF597C007D36120FF9742EC4
:100EA8002FF974003E756001F561896274302FF97D
:100EB80074003E756301F564896574322FF9740016
:100EC8003E756601F56789687BFF7A0579461217D2
:100ED800E3121C9E80097BFF7A05794F1214671272
:100EE8001CAF0208787BFF7A057960121467121C20
:0B0EF8009EEF6420700302087880F376
:101CAF007BFF7A057991121467121C9EBF20FA22CE
:101A78007BFF7A0579B31214677B007A0079247D9D
:101A8800207C00121B43E4F558F559AE58AF597C39
:101A9800007D36120FF974002FF974003EFA7B01AD
:101AA800C0031B8B60756100756224D003121BE2B2
:101AB800E94A4B6052855860855961AE58AF597CE8
:101AC800007D36120FF974002FF974003E7562011B
:101AD800F563896474202FF974003E756501F56615
:101AE800896790003475F036E55912100BE5587582
:101AF800F036A42583F583E0F568A3E0F5697BFF5C
:101B08007A0579E91214670559E55970020558C331
:101B180094F4E558648094815003021A937BFF7A09
:101B28000579F91214677560007561007562227B8A
:0B1B3800FF7A0679291217E3021C9EB9
:03000000021CBF20
:0C1CBF00787FE4F6D8FD758176020848B5
:100F0300E709F608DFFA8046E709F208DFFA803ED0
:100F130088828C83E709F0A3DFFA8032E309F608BD
:100F2300DFFA8078E309F208DFFA807088828C8325
:100F3300E309F0A3DFFA806489828A83E0A3F608D9
:100F4300DFFA805889828A83E0A3F208DFFA804CB3
:100F530080D280FA80C680D4806980F2803380108A
:100F630080A680EA809A80A880DA80E280CA8033F3
:100F730089828A83ECFAE493A3C8C582C8CCC5836B
:100F8300CCF0A3C8C582C8CCC583CCDFE9DEE7803B
:100F93000D89828A83E493A3F608DFF9ECFAA9F0BA
:100FA300EDFB2289828A83ECFAE0A3C8C582C8CC10
:100FB300C583CCF0A3C8C582C8CCC583CCDFEADE29
:100FC300E880DB89828A83E493A3F208DFF980CC8B
:100FD30088F0EF60010E4E60C388F0ED2402B40484
:100FE3000050B9F582EB2402B4040050AF2323452B
:060FF3008223900F5373EE
:100FF900EF8DF0A4A8F0CF8CF0A428CE8DF0A42E0C
:02100900FE22C5
:0C100B00A42582F582E5F03583F58322F0
:10140500E56C2460F8E6056C22785D3007027860AB
:10141500E475F00112139B0212D12000EB7F2ED24E
:10142500008018EF540F2490D43440D4FF30040BBF
:10143500EF24BFB41A0050032461FFE56D60021567
:101445006D0570E5707002056F30070D785DE47508
:10145500F00112139BEF021317021C647403D207E9
:101465008003E4C207F56C8B5D8A5E895FE4F56DE8
:10147500F56FF570E56D60077F2012144080F575F6
:101485006EFFC201C200C202C203C205C206C20883
:1014950012140EFF700D3007057F00121451AF7046
:1014A500AE6F22B4255FC2D5C20412140EFF24D03C
:1014B500B40A00501A75F00A786D30D50508B6FFE4
:1014C5000106C6A426F620D5047002D20380D924CD
:1014D500CFB41A00EF5004C2E5D204021651D2016E
:1014E50080C6D20080C0D20280BCD2D580BAD205D7
:1014F50080B47F201214402002077401B56D0040AE
:10150500F1121405FF121440021479D208D2068094
:1015150095121405FB121405FA121405F94A4B70BD
:101525000679227A177BFF20022EE56D602A7E0060
:101535008E827583001212EA60060EEE656E70F0FB
:10154500C2D5EBC0E0EAC0E0E9C0E0EE121698D0E3
:10155500E0F9D0E0FAD0E0FB1212D1FF60AAEBC0AF
:10156500E0EAC0E0E9C0E0121440D0E02401F9D07F
:10157500E03400FAD0E0FBE56E0460DCD56ED9807E
:10158500877BFF7A167994D202809C791080027944
:1015950008C206C2088008D2D5790A8004790AC231
:1015A500D5E56E047002F56EE4FAFDFEFF12140532
:1015B500FC7B08200113121405FD7B1030000A1274
:1015C5001405FE121405FF7B20EC3382D592D5500D
:1015D50013C3E43000069FFFE49EFEE42001039D53
:1015E500FDE49CFCE4CBF8C201EC700CCFCECDCC75
:1015F500E824F8F870F38017C3EF33FFEE33FEED00
:1016050033FDEC33FCEB33FB994002FB0FD8E9EBE0
:10161500300105F8D0E0C448B201C0E00AEC4D4EF7
:101625004F78207B0070C2EAB56E0040BCC0E01266
:10163500169AD0F0D0E0200104C4C0E0C4B201C0C5
:10164500F0121429D0F0D5F0EB0214791213BB1562
:10165500165315905814E74C14E34215944F159CF6
:0F16650044159C4914FC4315A25515864615865D
:101674004515864717425014EB2D14EF2E15122BE7
:1016840014F323151020172B2A14AB480000150A55
:101694003F3F3F00790AA2D5200314300509B91051
:1016A400020404B9080104A2D52006025001042052
:1016B40002689202B56D005034C0E07F20300319F7
:1016C4007F30A20272067205500F1216F1C202C2D6
:1016D40006C205C2087F30800F300503E9C0E0125E
:1016E4001440300503D0E0F9D0E0B56DCC300517D7
:1016F4007F30B9100C1214407F583004077F788073
:1017040003B908031214403002057F2D0214407FF0
:10171400202008F87F2B2006F322920280CF286E27
:10172400756C6C2900D2011214053001F8C20178DD
:101734006D30D50108F60214AB2D504349581214EC
:10174400052403B405004001E490173D93121431BD
:0D175400743A121431D203756D0402159021
:101C9E0010090B121CCBBF0D027F0A021C64AF0889
:011CAE002213
:10176100E57230030104F823282460F822785D3003
:1017710003027860E475F00112139B0212D160EC50
:10178100C5767002157514C576200304FF021CD5B9
:10179100785D74FFF5F00213ABFF021C8BE57360FB
:1017A10006D573037F002220030F121C9EEF6008F1
:1017B1000576E5767002057522785D121392121294
:1017C100D1FF60E9785DE475F00112139B80DE12B0
:1017D10017A8EFC0E012179AD0E040F380A0D2031F
:1017E1008002C2038B5D8A5E895FE4F574F572F550
:1017F10075F576757300C202C200C201C2041217E8
:101801006EFF7005AF747E0022B4253012176EFF93
:1018110024D0B40A00500C75F00AC573A42573F5E1
:101821007380E924CFB41A00EF5002C2E5021A44D2
:10183100D20180D8D20080D4D20480D0EF12179A7E
:1018410050081217D0EF600E80A9EFC0E01217A860
:10185100D0E06F609EEF607412177F80A71217A807
:10186100EF6069E5737007057380031217A8EF60D5
:101871001420040E121761E475F00112139BEF128C
:101881001317D573E62004040572057480BA121784
:101891009EEFC0E012179AD0E0500412177FE4FFC8
:1018A10020040E121761E475F00112139BEF12135D
:1018B10017EF70DA20040405720574808BE57360FC
:1018C1000205731217D012179EEF70C6300304E49D
:1018D10012177FE57460030218057EFF7FFF222047
:1018E100041174FFFCFDFEFF121761121392121313
:1018F1007805720217F4D0E080D27900800A79105D
:10190100800679088002790AD205E57360020573C1
:10191100E9C0E01217D0EF60DD1217A8BF2D04D285
:10192100028003BF2B091217D0EF60CA12179ED095
:10193100E0B40A028033B40802802EBF302770025F
:101941007408C205C0E012179ED0E0BF7802800380
:10195100BF58160573D573028007D57304D205806D
:101961000B741080197002740ABF000AEFF8E4FCCE
:10197100FDFEFF0219F7C0E0EF12177FD0E0F9E496
:10198100FCFDFEFFE9C0E0ECC0E0EDC0E0EEC0E030
:10199100EFC0E012179EEFF8D0E0FFD0E0FED0E0FC
:1019A100FDD0E0FCD0F0E8604DB461004007B47BAD
:1019B100005002C2E524D0503DFA24F6500724F924
:1019C1005034240AFAEAB5F000502BCFA9F0A42F25
:1019D100FF92D5E9C5F0CEA4A2D53EFE92D5E9C5C8
:1019E100F0CDA4A2D53DFD92D5E9C5F0CCA4A2D5F8
:0B19F1003CFCC205808EE8C0E0200432
:1019FC002A200508057430020312136A12176112AB
:101A0C001392057220000B20010DEE8FF012134B78
:101A1C0080091213788004EF121317D0E012177F8D
:101A2C000217F42004101217611213920572E57557
:101A3C008576F012134B80E81213BB18BE5318FFB7
:101A4C005818354C183142180D4819034F190744D2
:101A5C00185E4318FB4919075518E04618E045185D
:0C1A6C00E04718392A1A2F4E0000183DE0
:101B43008B5D8A5E895F8C608D61E4F562F563E588
:101B53006124FFFFE56034FFFEC3E5639FEE64800D
:101B6300F8E5626480985066121C9EAB5DAA5EA97C
:101B73005F856382856283EF121329640A604FAB2A
:101B83005DAA5EA95F8563828562831212EAB40847
:101B93001AE56345626008E5631563700215627FA9
:101BA30020121C647F08121C6480A4AB5DAA5EA98A
:101BB3005F8563828562831212EAFF64116090EF8E
:101BC3006413608B0563E563708505628081AB5D9B
:0F1BD300AA5EA95F856382856283E412132922CB
:10101700E3F5F009E208B5F06D606B80F3E3F5F0F6
:1010270009E608B5F060605E80F387F009E608B569
:10103700F054605280F487F009E208B5F048604642
:1010470080F488828C8387F009E0A3B5F038603696
:1010570080F488828C8387F009E493A3B5F0276036
:101067002580F388828C83E3F5F009E0A3B5F016B9
:10107700601480F388828C83E3F5F009E493A3B5C9
:10108700F004600280F2021142808580E7808E8042
:10109700D2803C8015806C807E809B80B5808B8061
:1010A700A1804F8070803A02115889828A83ECFAB6
:1010B700E493F5F0A3C8C582C8CCC583CCE493A359
:1010C700C8C582C8CCC583CCB5F070606E80E18995
:1010D700828A83E493F5F0A3E208B5F05E605C8052
:1010E700F289828A83E0F5F0A3E608B5F04D604BFC
:1010F70080F389828A83E0F5F0A3E208B5F03C60CB
:101107003A80F389828A83E493F5F0A3E608B5F081
:101117002A602880F2805D89828A83ECFAE493F55D
:10112700F0A3C8C582C8CCC583CCE0A3C8C582C814
:10113700CCC583CCB5F004600280E27F00F845F0AF
:10114700600EE863F0806480D395F01F40027F0152
:101157002289828A83ECFAE0F5F0A3C8C582C8CC5D
:10116700C583CCE0A3C8C582C8CCC583CCB5F0CBBA
:1011770060C980E389828A83ECFAE0F5F0A3C8C5E9
:1011870082C8CCC583CCE493A3C8C582C8CCC58329
:10119700CCB5F0A760A580E288F0ED2402B4040086
:1011A7005099F582EB2402B40400508F2323458223
:0511B70023901090736D
:1011BC00E709F60870FA8046E709F20870FA803EF3
:1011CC0088828C83E709F0A370FA807EE309F60825
:1011DC0070FA8076E309F20870FA806E88828C834C
:1011EC00E309F0A370FA806289828A83E0A3F6088F
:1011FC0070FA805689828A83E0A3F20870FA804ADA
:10120C0080D280FA80C680D4806580F280318010D4
:10121C0080A680EA809A80A880DA80E280CA803139
:10122C0089828A83ECFAE493A3C8C582C8CCC583AF
:10123C00CCF0A3C8C582C8CCC583CC70E9800D891D
:10124C00828A83E493A3F60870F9ECFAA9F0EDFB1B
:10125C002289828A83ECFAE0A3C8C582C8CCC583F4
:10126C00CCF0A3C8C582C8CCC583CC70EA80DD891C
:10127C00828A83E493A3F20870F980CE88F0ED247F
:10128C0002B4040050C4F582EB2402B4040050BA3A
:09129C00232345822390120C73F8
:101BE2008B5D8A5E895FAB60AA61A9621212D160C5
:101BF20063AB5DAA5EA95F1212D1605F85606385E7
:101C020061648562658B668A678968AB63AA64A929
:101C1200651212D1FF6023AB66AA67A9681212D1BE
:101C22006F7017042565F565E43564F56474012564
:101C320068F568E43567F56780D1AB63AA64A96586
:101C42001212D17002800D7401255FF55FE4355EDA
:101C5200F55E809DAB5DAA5EA95F227B007A00796A
:021C620000225E
:1012A500EF4E6012EF60010EEDBB010B89828A8360
:1012B500F0A3DFFCDEFA2289F05007F709DFFCA96D
:0C12C500F022BBFEFCF309DFFCA9F022C4
:1012D100BB010689828A83E0225002E722BBFE021B
:0912E100E32289828A83E493224E
:1012EA00BB010CE58229F582E5833AF583E02250B9
:1012FA0006E92582F8E622BBFE06E92582F8E22203
:0D130A00E58229F582E5833AF583E493221C
:10131700BB010689828A83F0225002F722BBFE01B5
:02132700F322AF
:10132900F8BB010DE58229F582E5833AF583E8F0FA
:10133900225006E92582C8F622BBFE05E92582C8A6
:02134900F2228E
:10134B00BB010A89828A83F0E5F0A3F0225006F7ED
:0F135B0009A7F01922BBFE06F3E5F009F31922EA
:0E136A00C3E49FFFE49EFEE49DFDE49CFC2294
:10137800BB010789828A830213ED5005E9F802133D
:0A138800E1BBFE05E9F80213F922AB
:09139200E6FB08E6FA08E6F92280
:10139B00FAE6FB0808E6F925F0F618E6CA3AF62253
:1013AB00FAE6FB0808E625F0F9F618E63AFAF62213
:1013BB00D083D082F8E4937012740193700DA3A3C1
:1013CB0093F8740193F5828883E4737402936860D5
:0613DB00EFA3A3A380DFD5
:101C6400EFB40A07740D121C6F740A309811A89906
:101C7400B8130CC2983098FDA899C298B811F630E0
:071C840099FDC299F59922B8
:0A1CCB003098FDAF99C2987E002208
:051CD5008F08D2092276
:101C8B00EFC394094005EF940E4003BF2003D380AC
:031C9B0001C32260
:0C13E100ECF608EDF608EEF608EFF62238
:0C13ED00ECF0A3EDF0A3EEF0A3EFF02273
:0C13F900ECF208EDF208EEF208EFF22230
:00000001FF
