:100003000C2B2D2D2D2D2D2D2D2D2D2D2D2D2D2D40
:100013002D2D2D2D2D2D2D2D2D2D2D2D2D2D2D2D0D
:100023002D2D2D2D2D2B0A7C20202020202020203B
:1000330020202020202020202020202020202020BD
:1000430020202020202020202020207C0A7C20200B
:100053002020204147454E444120444520434F4EF4
:100063005441544F532020202020202020202020A2
:10007300207C0A7C202020202020202020202020DB
:10008300202020202020202020202020202020206D
:10009300202020202020207C0A007C204D656E75C6
:1000A300202D204469676974652061206F70E7E340
:1000B3006F20646573656A616461202020207C0A77
:1000C300007C205B4C5D202D204C6973746120649F
:1000D3006520436F6E7461746F732020202020208D
:1000E30020202020207C0A007C205B4E5D202D20D8
:1000F300506573717569736120706F72206E6F6DD7
:100103006520202020202020202020207C0A007C25
:10011300205B495D202D20506573717569736120E3
:10012300706F722069646164652020202020202084
:100133002020207C0A007C205B525D202D2050650E
:1001430073717569736120706F722052656C61639E
:10015300696F6E616D656E746F207C200A007C2070
:100163005B415D202D20416463696F6E6172206382
:100173006F6E7461746F20202020202020202020A7
:1001830020207C0A007C205B445D202D2044656C8C
:100193006574617220636F6E7461746F2020202018
:1001A3002020202020202020207C0A007C205B456A
:1001B3005D202D2052656E6F6D65617220636F6ED9
:1001C3007461746F202020202020202020202020F4
:1001D3007C200A002B2D2D2D2D2D2D2D2D2D2D2D5C
:1001E3002D2D2D2D2D2D2D2D2D2D2D2D2D2D2D2D3C
:1001F3002D2D2D2D2D2D2D2D2B0A0A002F66004C74
:100203006973746120646520436F6E7461746F73E6
:100213002073656C6563696F6E6164612E0A0025E6
:1002230073202573202562640A000A2050726573C7
:1002330073696F6E652065737061E76F207061721B
:100243006120636F6E74696E7561720050657371BE
:100253007569736120706F72206E6F6D65207365B1
:100263006C6563696F6E6164612E0A004469676936
:100273007465206F206E6F6D650A0050657371752C
:1002830069736120706F72206964616465207365AE
:100293006C6563696F6E6164612E0A0050657371EA
:1002A3007569736120706F722072656C6163696F29
:1002B3006E616D656E746F2073656C6563696F6ED7
:1002C3006164612E0A0041646963696F6E61722023
:1002D300636F6E7461746F2073656C6563696F6EB1
:1002E30061646F2E0A00496E73697261206F206E1C
:1002F3006F6D650A00257300446967697465206F33
:100303002074656C65666F6E6520646F20636F6E25
:100313007461746F3A2000446967697465206120D1
:1003230064617461206465206E617363696D656ED9
:10033300746F20646F20636F6E7461746F20286420
:100343006961206DEA7320616E6F293A200025648C
:1003530020256420256400446967697465206F2043
:1003630072656C6163696F6E616D656E746F206435
:100373006F20636F6E7461746F3A200020256300F1
:100383000A205072657373696F6E652065737061BF
:10039300E76F207061726120766F6C746172004444
:1003A300656C6574617220636F6E7461746F207322
:1003B300656C6563696F6E61646F2E0A002564BAAC
:1003C300202573202573202562640A000A4F70E7F5
:1003D300E36F20696E76E16C6964612E2054656E6B
:1003E3007465206E6F76616D656E74652E0A004CC0
:1003F300696E646F6D6172204D69720000000000C8
:1004030000000000000000000000000000000037B2
:10041300313937343835393631340000000C0607AA
:10042300D700436C65612053616E746F73000000E5
:1004330000000000000000000000000000000000B9
:100443000000373139383734313233343500000066
:10045300140607D3014672616E6B6C696E2053619B
:100463007661676574000000000000000000000072
:100473000000000000373239393931323136323039
:10048300000000120607D8024D617269616E612097
:10049300426172726F7300000000000000000000F0
:1004A3000000000000000000373439373438353994
:1004B3003631330000000C0607D2034A6F73E9207C
:1004C3004564756172646F00000000000000000065
:1004D300000000000000000000000037313937340D
:1004E3003835393631330000001E0607C504546120
:1004F3007469616E61204F6C697665697261000091
:100503000000000000000000000000000000373180
:100513003937343835393631300000000C0607CF0F
:100523000543616D696C61206465204A6573757369
:1005330000000000000000000000000000000000B8
:100543000037313937343835393631350000000159
:100553000607A5064C6F7569736520506F6C69615A
:100563006E610000000000000000000000000000B9
:100573000000000037393938373531343935320026
:1005830000001E0607AA07486569746F7220446954
:100593006173000000000000000000000000000084
:1005A3000000000000000037313938343132353271
:1005B30034370000000C0607B7085265696E616C9A
:1005C300646F20476F6573000000000000000000A7
:1005D30000000000000000000000373139373438D4
:0D05E30035393631380000001B0807BA0911
:1005F000758920759852758DF3438780D28E7E63FE
:100600007F9C7D007B017A0079001211FD78007CCF
:10061000007D017BFF7A0379F27E017FFE1211B922
:100620007BFF7A007903120AD87BFF7A00799D124A
:100630000AD87BFF7A0079C4120AD87BFF7A007946
:10064000EB120AD87BFF7A017912120AD87BFF7A63
:10065000017939120AD87BFF7A017961120AD87BB5
:10066000FF7A017988120AD87BFF7A0179AF120AE2
:10067000D87BFF7A0179D7120AD81214B88F22E5F5
:1006800022646C6009E522644C600302072E7BFF44
:100690007A0179FF120AD87BFF7A027902120AD80E
:1006A000E4F523F52490000075F033E5241211F1F0
:1006B000E52375F033A42583F583E06048AE23AFCE
:1006C000247C007D331211DF74002FF974003E7515
:1006D0004801F549894A74202FF974003E754B0191
:1006E000F54C894D90003275F033E5241211F1E597
:1006F0002375F033A42583F583E0F54E7BFF7A0262
:100700007922120AD80524E52470020523C394F443
:10071000E52364809481408D7BFF7A02792D120A53
:10072000D81214B8EF6420700302062080F3E5228B
:10073000646E6009E522644E60030207FF7BFF7A66
:1007400002794F120AD87B007A0079257D207C003F
:1007500012135D7BFF7A02796F120AD8E4F523F554
:1007600024AE23AF247C007D331211DF74002FF9F7
:1007700074003EFA7B01C0031B8B48754900754A23
:1007800025D0031213FCE94A4B6048AE23AF247C0A
:10079000007D331211DF74002FF974003E7548019B
:1007A000F549894A74202FF974003E754B01F54CC8
:1007B000894D90003275F033E5241211F1E523756F
:1007C000F033A42583F583E0F54E7BFF7A0279228E
:1007D000120AD80524E52470020523C394F4E52306
:1007E0006480948150030207617BFF7A02792D12A5
:1007F0000AD81214B8EF6420700302062080F3E5D3
:100800002264696005E522B449097BFF7A02797E9A
:1008100002097FE52264726005E522B452097BFF7C
:100820007A02799F02097FE52264616009E522640A
:1008300041600302096E7BFF7A0279C9120AD8E48B
:10084000F523F524C3E52494F4E5236480948140E2
:100850000302062090000075F033E5241211F1E543
:100860002375F033A42583F583E060030209637BDD
:10087000FF7A0279E9120AD8AE23AF247C007D33D7
:100880001211DF74002FF974003E754801F5498993
:100890004A7BFF7A0279F8120E547BFF7A0279FBC9
:1008A000120AD8AE23AF247C007D331211DF7420EE
:1008B0002FF974003E754801F549894A7BFF7A0299
:1008C00079F8120E547BFF7A03791A120AD87BFF4B
:1008D0007A03795190002E75F033E5241211F1E579
:1008E0002375F033A42583F583E0F54890002F7538
:1008F000F033E5241211F1E52375F033A42583F5D7
:1009000083E0F54990003075F033E5241211F1E5EC
:100910002375F033A42583F583E0F54AA3E0F54B76
:10092000120E547BFF7A03795A120AD87BFF7A039E
:10093000797F90003275F033E5241211F1E52375CB
:10094000F033A42583F583E0F548120E547BFF7A3B
:10095000037983120AD81214B8EF642070030206D8
:100960002080F30524E52470020523020844E522D3
:1009700064646005E522B4440C7BFF7A0379A2121B
:100980000AD8020620E52264656009E52264456014
:1009900003020A607B007A0079257D207C00121317
:1009A0005D7BFF7A02796F120AD87B007A00792585
:1009B0007D207C0012135DE4F523F524AE23AF24E3
:1009C0007C007D331211DF74002FF974003EFA7B36
:1009D00001C0031B8B48754900754A25D0031213CB
:1009E000FCE94A4B604E852348852449AE23AF2459
:1009F0007C007D331211DF74002FF974003E754ABC
:100A000001F54B894C74202FF974003E754D01F5AA
:100A10004E894F90003275F033E5241211F1E52331
:100A200075F033A42583F583E0F5507BFF7A0379D5
:100A3000C0120AD80524E52470020523C394F4E506
:100A4000236480948150030209BC7BFF7A02792DD4
:100A5000120AD81214B8EF6420700302062080F343
:100A60007BFF7A0379CF120AD81214B8EF64207092
:060A70000302062080F3E2
:030000000214C91E
:0C14C900787FE4F6D8FD75815E0205F026
:1010E900E709F608DFFA8046E709F208DFFA803EE9
:1010F90088828C83E709F0A3DFFA8032E309F608D6
:10110900DFFA8078E309F208DFFA807088828C833D
:10111900E309F0A3DFFA806489828A83E0A3F608F1
:10112900DFFA805889828A83E0A3F208DFFA804CCB
:1011390080D280FA80C680D4806980F280338010A2
:1011490080A680EA809A80A880DA80E280CA80330B
:1011590089828A83ECFAE493A3C8C582C8CCC58383
:10116900CCF0A3C8C582C8CCC583CCDFE9DEE78053
:101179000D89828A83E493A3F608DFF9ECFAA9F0D2
:10118900EDFB2289828A83ECFAE0A3C8C582C8CC28
:10119900C583CCF0A3C8C582C8CCC583CCDFEADE41
:1011A900E880DB89828A83E493A3F208DFF980CCA3
:1011B90088F0EF60010E4E60C388F0ED2402B4049C
:1011C9000050B9F582EB2402B4040050AF23234543
:0611D9008223901139731E
:1011DF00EF8DF0A4A8F0CF8CF0A428CE8DF0A42E24
:0211EF00FE22DE
:0C11F100A42582F582E5F03583F5832209
:100A7600E5542448F8E605542278453007027848BC
:100A8600E475F0011212F30212292000EB7F2ED238
:100A9600008018EF540F2490D43440D4FF30040B58
:100AA600EF24BFB41A0050032461FFE55560021518
:100AB600550558E5587002055730070D7845E47519
:100AC600F0011212F3EF02126F02147E7403D207C2
:100AD6008003E4C207F5548B458A468947E4F555F9
:100AE600F557F558E55560077F20120AB180F57570
:100AF60056FFC201C200C202C203C205C206C20834
:100B0600120A7FFF700D3007057F00120AC2AF5828
:100B1600AE5722B4255FC2D5C204120A7FFF24D085
:100B2600B40A00501A75F00A785530D50508B6FF94
:100B36000106C6A426F620D5047002D20380D92465
:100B4600CFB41A00EF5004C2E5D204020CC2D2019F
:100B560080C6D20080C0D20280BCD2D580BAD2056F
:100B660080B47F20120AB12002077401B5550040F7
:100B7600F1120A76FF120AB1020AEAD208D20680F8
:100B860095120A76FB120A76FA120A76F94A4B7021
:100B96000679937A0D7BFF20022EE555602A7E00AA
:100BA6008E8275830012124260060EEE655670F054
:100BB600C2D5EBC0E0EAC0E0E9C0E0EE120D09D014
:100BC600E0F9D0E0FAD0E0FB121229FF60AAEBC0F0
:100BD600E0EAC0E0E9C0E0120AB1D0E02401F9D0B1
:100BE600E03400FAD0E0FBE5560460DCD556D98047
:100BF600877BFF7A0D7905D202809C791080027975
:100C060008C206C2088008D2D5790A8004790AC2C9
:100C1600D5E556047002F556E4FAFDFEFF120A7693
:100C2600FC7B08200113120A76FD7B1030000A12A5
:100C36000A76FE120A76FF7B20EC3382D592D550D7
:100C460013C3E43000069FFFE49EFEE42001039DEB
:100C5600FDE49CFCE4CBF8C201EC700CCFCECDCC0D
:100C6600E824F8F870F38017C3EF33FFEE33FEED98
:100C760033FDEC33FCEB33FB994002FB0FD8E9EB79
:100C8600300105F8D0E0C448B201C0E00AEC4D4E90
:100C96004F78207B0070C2EAB5560040BCC0E01217
:100CA6000D0BD0F0D0E0200104C4C0E0C4B201C0F6
:100CB600F0120A9AD0F0D5F0EB020AEA1213130BDF
:100CC60087530C01580B584C0B54420C054F0C0D16
:0F0CD600440C0D490B6D430C13550BF7460BF7F0
:100CE500450BF7470DB3500B5C2D0B602E0B832B7B
:100CF5000B64230B81200D9C2A0B1C4800000B7BE9
:100D05003F3F3F00790AA2D5200314300509B910E9
:100D1500020404B9080104A2D520060250010420EA
:100D250002689202B555005034C0E07F20300319A7
:100D35007F30A20272067205500F120D62C202C206
:100D450006C205C2087F30800F300503E9C0E012F6
:100D55000AB1300503D0E0F9D0E0B555CC30051720
:100D65007F30B9100C120AB17F583004077F7880A4
:100D750003B90803120AB13002057F2D020AB17FBB
:100D8500202008F87F2B2006F322920280CF286EC0
:100D9500756C6C2900D201120A763001F8C201780F
:100DA5005530D50108F6020B1C2D50434958120A3F
:100DB500762403B405004001E4900DAE93120AA217
:0D0DC500743A120AA2D203755504020C0103
:1014B80010090B1214D5BF0D027F0A02147EAF0863
:0114C8002201
:100DD200E55A30030104F823282448F822784530E4
:100DE20003027848E475F0011212F302122960EC52
:100DF200C55E7002155D14C55E200304FF0214DF98
:100E0200784574FFF5F0021303FF0214A5E55B6059
:100E120006D55B037F002220030F1214B8EF60088F
:100E2200055EE55E7002055D2278451212EA121235
:100E320029FF60E97845E475F0011212F380DE12B1
:100E42000E19EFC0E0120E0BD0E040F380A0D203E7
:100E52008002C2038B458A468947E4F55CF55AF560
:100E62005DF55E755B00C202C200C201C204120DD2
:100E7200DFFF7005AF5C7E0022B42530120DDFFF6C
:100E820024D0B40A00500C75F00AC55BA4255BF5AA
:100E92005B80E924CFB41A00EF5002C2E50210B51C
:100EA200D20180D8D20080D4D20480D0EF120E0BAF
:100EB2005008120E41EF600E80A9EFC0E0120E1929
:100EC200D0E06F609EEF6074120DF080A7120E19D1
:100ED200EF6069E55B7007055B8003120E19EF6036
:100EE2001420040E120DD2E475F0011212F3EF1267
:100EF200126FD55BE6200404055A055C80BA120E17
:100F02000FEFC0E0120E0BD0E05004120DF0E4FF20
:100F120020040E120DD2E475F0011212F3EF121238
:100F22006FEF70DA200404055A055C808BE55B6084
:100F320002055B120E41120E0FEF70C6300304E47D
:100F4200120DF0E55C6003020E767EFF7FFF222029
:100F5200041174FFFCFDFEFF120DD21212EA1212EE
:100F6200D0055A020E65D0E080D27900800A79104D
:100F7200800679088002790AD205E55B6002055B8A
:100F8200E9C0E0120E41EF60DD120E19BF2D04D24E
:100F9200028003BF2B09120E41EF60CA120E0FD05E
:100FA200E0B40A028033B40802802EBF30277002F8
:100FB2007408C205C0E0120E0FD0E0BF78028003B1
:100FC200BF5816055BD55B028007D55B04D205804E
:100FD2000B741080197002740ABF000AEFF8E4FC67
:100FE200FDFEFF021068C0E0EF120DF0D0E0F9E460
:100FF200FCFDFEFFE9C0E0ECC0E0EDC0E0EEC0E0C9
:10100200EFC0E0120E0FEFF8D0E0FFD0E0FED0E02C
:10101200FDD0E0FCD0F0E8604DB461004007B47B45
:10102200005002C2E524D0503DFA24F6500724F9BC
:101032005034240AFAEAB5F000502BCFA9F0A42FBD
:10104200FF92D5E9C5F0CEA4A2D53EFE92D5E9C560
:10105200F0CDA4A2D53DFD92D5E9C5F0CCA4A2D590
:0B1062003CFCC205808EE8C0E02004CA
:10106D002A200508055C3002031212C2120DD2129D
:10107D0012EA055A20000B20010DEE8FF01212A37B
:10108D0080091212D08004EF12126FD0E0120DF011
:10109D00020E65200410120DD21212EA055AE55DFA
:1010AD00855EF01212A380E81213130F2F530F70E9
:1010BD00580EA64C0EA2420E7E480F744F0F784468
:1010CD000ECF430F6C490F78550F51460F51450FF9
:0C10DD0051470EAA2A10A04E00000EAED3
:10135D008B458A4689478C488D49E4F54AF54BE51E
:10136D004924FFFFE54834FFFEC3E54B9FEE648043
:10137D00F8E54A64809850661214B8AB45AA46A9A0
:10138D0047854B82854A83EF121281640A604FAB09
:10139D0045AA46A947854B82854A83121242B40855
:1013AD001AE54B454A6008E54B154B7002154A7F0F
:1013BD002012147E7F0812147E80A4AB45AA46A984
:1013CD0047854B82854A83121242FF64116090EF6C
:1013DD006413608B054BE54B7085054A8081AB45E9
:0F13ED00AA46A947854B82854A83E412128122C2
:1013FC008B458A468947AB48AA49A94A12122960EB
:10140C0063AB45AA46A947121229605F85484B85F4
:10141C00494C854A4D8B4E8A4F8950AB4BAA4CA9EF
:10142C004D121229FF6023AB4EAA4FA9501212295C
:10143C006F701704254DF54DE4354CF54C740125B2
:10144C0050F550E4354FF54F80D1AB4BAA4CA94D1C
:10145C001212297002800D74012547F547E43546B8
:10146C00F546809DAB45AA46A947227B007A0079B8
:02147C0000224C
:1011FD00EF4E6012EF60010EEDBB010B89828A8309
:10120D00F0A3DFFCDEFA2289F05007F709DFFCA915
:0C121D00F022BBFEFCF309DFFCA9F0226C
:10122900BB010689828A83E0225002E722BBFE02C3
:09123900E32289828A83E49322F6
:10124200BB010CE58229F582E5833AF583E0225061
:1012520006E92582F8E622BBFE06E92582F8E222AB
:0D126200E58229F582E5833AF583E49322C5
:10126F00BB010689828A83F0225002F722BBFE015E
:02127F00F32258
:10128100F8BB010DE58229F582E5833AF583E8F0A3
:10129100225006E92582C8F622BBFE05E92582C84F
:0212A100F22237
:1012A300BB010A89828A83F0E5F0A3F0225006F796
:0F12B30009A7F01922BBFE06F3E5F009F3192293
:0E12C200C3E49FFFE49EFEE49DFDE49CFC223D
:1012D000BB010789828A830213455005E9F802138E
:0A12E00039BBFE05E9F802135122A4
:0912EA00E6FB08E6FA08E6F92229
:1012F300FAE6FB0808E6F925F0F618E6CA3AF622FC
:10130300FAE6FB0808E625F0F9F618E63AFAF622BB
:10131300D083D082F8E4937012740193700DA3A369
:1013230093F8740193F5828883E47374029368607D
:06133300EFA3A3A380DF7D
:10147E00EFB40A07740D121489740A309811A899E2
:10148E00B8130CC2983098FDA899C298B811F630CE
:07149E0099FDC299F59922A6
:0A14D5003098FDAF99C2987E002206
:0514DF008F08D2092274
:1014A500EFC394094005EF940E4003BF2003D3809A
:0314B50001C3224E
:0C133900ECF608EDF608EEF608EFF622E0
:0C134500ECF0A3EDF0A3EEF0A3EFF0221B
:0C135100ECF208EDF208EEF208EFF222D8
:00000001FF
